:1000000025C03FC060C13DC03CC03BC03AC039C004
:1000100038C037C036C035C034C033C032C031C03C
:1000200030C02AC235C240C24BC256C261C26CC285
:1000300091C2AAC2C3C2DCC204C31BC332C352C32F
:100040006BC384C39DC3BCC3D3C3EAC311241FBE07
:10005000CFE5D1E0DEBFCDBF10E0A0E6B0E0E8E83C
:10006000FDE002C005900D92AC3EB107D9F721E04A
:10007000ACEEB0E001C01D92AC30B207E1F734D174
:1000800081C6BECFD49ADC988AE18A95F1F700C088
:10009000D59ADD989AE19A95F1F700C0D498DC9A48
:1000A0008AE18A95F1F700C0D598DD9A9AE19A9590
:1000B000F1F700C0CD9902C082E001C080E0CC9B86
:1000C00081609AE19A95F1F700C09AE19A95F1F76B
:1000D00000C09AE19A95F1F700C09AE19A95F1F77C
:1000E00000C00895D59ADD988AE18A95F1F700C09D
:1000F000D49ADC988AE18A95F1F700C00895D598E2
:10010000DD9A8AE18A95F1F700C0D498DC9A8AE1F9
:100110008A95F1F700C0D59ADD988AE18A95F1F7C2
:1001200000C0D49ADC988AE18A95F1F700C008955E
:10013000D598DD9AD498DC9AA5DF089598E08823B5
:100140001CF0D59ADD9802C0D598DD9A2AE12A954F
:10015000F1F700C0D498DC9A2AE12A95F1F700C0A3
:10016000D49ADC98880F915051F7D598DD9A8AE19E
:100170008A95F1F700C0D498DC9A2AE12A95F1F724
:1001800000C089B3D49ADC9885FB882780F908954C
:10019000282FD598DD9A98E080E0880FD498DC9AD3
:1001A0003AE13A95F1F700C0CD998160D49ADC9894
:1001B0003AE13A95F1F700C0915079F7211103C067
:1001C000D59ADD9802C0D598DD9A9AE19A95F1F713
:1001D00000C0D498DC9A3AE13A95F1F700C0D49A7D
:1001E000DC989AE19A95F1F700C0D598DD9A0895C8
:1001F000379A86B1866086B908958BB780618BBFC8
:10020000969A089597B1987F8770892B87B9369A07
:100210003699FECF84B195B108956AE091D5829563
:10022000807F890F0895982F92959F70292F220F14
:10023000220F920F990F8F70890F0895CF93C82FB7
:1002400051DF80ED7BDF8EE079DF8C2F77DF1ADFE7
:10025000CF910895CF93DF93D82FC62F43DF80ED42
:100260006DDF8D2F6BDF8C2FD8DF68DF0BDFDF9129
:10027000CF91089537DF80ED61DF80E05FDF3FDF02
:1002800081ED5CDF80E084DFCEDF8093090180E0D8
:100290007FDFC9DF8093080181E07ADFC4DF8093CC
:1002A0000B01F0DE0895CF931DDF8EE947DF80E07C
:1002B00045DF25DF8FE942DF81E06ADFC82FE2DE1C
:1002C0008C2FCF9108951F920F920FB60F92112489
:1002D0008F93CE9903C081E08093EC008F910F90B3
:1002E0000FBE0F901F9018952FEF89E698E12150CF
:1002F00080409040E1F700C000007ADF7EDF18DF29
:1003000059D4809305018FD280E498DF80E090E09B
:1003100023D5C82F8093070181E090E01DD58093FD
:100320000A0182E090E018D5809306012C2F30E07E
:100330008091050190E001978217930714F41092C1
:1003400007018FE875D2789411E0CAE0D12FFC2E16
:100350000F2EFBE3DF2EF02D0F2EF7E1CF2EF02D29
:1003600083E050DF9093F2008093F100893E934048
:1003700008F45CC08091EE00811158C08091EC00BF
:10038000882309F453C076DF82E03CDF9093F000CD
:100390008093EF0020910A01213039F4C29728F4AC
:1003A00088E846D280E08FD405C08FE841D28091A2
:1003B000070189D40091ED0001270093ED008091A1
:1003C0000601813021F5809109018E51853088F434
:1003D0006ADF082F68DF282F802F6C2FB1D4492FB8
:1003E000822FAED4ED2E0D2F25E1682F84E177D238
:1003F0001BC08091080130910B016C2FA1D4482FB4
:10040000292F832F9DD4ED2E692F69D20DC08091A5
:10041000080130910B016C2F93D4482F292F832F83
:100420008FD4ED2E692F5BD21092EC008091F100F9
:100430009091F2000A9708F06EC08FEF92E527E0E6
:10044000815090402040E1F700C000008091EE0014
:10045000E1E0E80FE093EE00873018F0D093EE0073
:100460000BC08E2F90E0FC013197E730F10508F0CA
:1004700052C0EF5EFF4F099480910B016C2F60D446
:10048000E12C0D2F292F482F6BE08F2D28D243C050
:10049000809108016C2F54D4E12C0D2F292F482F67
:1004A0006DE08CE01CD237C0809109016C2F48D4DC
:1004B000E12C0D2F292F482F6EE085E010D22BC0A4
:1004C000809107016C2F3CD4E12C0D2F292F482F50
:1004D00060E18FE004D21FC080910A016C2F30D4FC
:1004E000E12C0D2F292F482F65E080E1F8D113C0B2
:1004F000809106016C2F24D4E12C0D2F292F482F39
:1005000063E185E0ECD107C0E12C0D2F22E142E14F
:1005100065E081E1E4D18091F1009091F200855F86
:100520009140C19708F0BFC08FEF92E527E081505E
:1005300090402040E1F700C00000E091EE008E2FD7
:1005400090E0FC013197E730F10508F0ACC0E85EBF
:10055000FF4F099480910B01873120F48F5F8093C6
:100560000B0102C0C0920B0180910B016C2FE8D3EC
:10057000E12C00E0292F482F6BE08F2DB0D1609146
:100580000B0182E067DE8FC0809108018B3320F47D
:100590008F5F8093080102C0D0920801809108010A
:1005A0006C2FCED3E12C00E0292F482F6DE08CE09A
:1005B00096D1609108018D2F4DDE75C080910901A3
:1005C0008B3320F48F5F8093090102C0D092090120
:1005D000809109016C2FB4D3E12C00E0292F482F22
:1005E0006EE085E07CD16091090180E033DE5BC084
:1005F0008091070191E0980F9093070140910501C8
:1006000090E0242F30E021503109821793071CF02D
:10061000415040930701809107016C2F91D3E12C49
:1006200000E0292F482F60E18FE059D18091070128
:100630004AD3F8946091070180E090E095D37894D4
:1006400032C08D2F90910A01911180E080930A01B0
:100650006C2F76D3E12C00E0292F482F65E080E154
:100660003ED1F89460910A0181E090E07DD37894C6
:100670001AC08D2F90910601911180E080930601A0
:100680006C2F5ED3E12C00E0292F482F63E185E039
:1006900026D1F8946091060182E090E065D37894C9
:1006A00002C01092EE008091F1009091F2008B5800
:1006B0009240C19708F054CE8FEF92E527E0815029
:1006C00090402040E1F700C00000E091EE008E2F46
:1006D00090E0FC013197E730F10508F041CEE15E92
:1006E000FF4F099480910B01882321F08150809362
:1006F0000B0102C010920B0180910B016C2F20D3D3
:10070000E12C00E0292F482F6BE08C2FE8D060917E
:100710000B0182E09FDD24CE80910801882321F027
:1007200081508093080102C0109208018091080155
:100730006C2F06D3E12C00E0292F482F6DE08CE0D0
:10074000CED060910801812F85DD0ACE809109010C
:10075000882321F081508093090102C01092090181
:10076000809109016C2FECD2E12C00E0292F482F59
:100770006EE085E0B4D06091090180E06BDDF0CDE2
:1007800080910701882321F081508093070102C0E6
:1007900010920701809107016C2FD2D2E12C00E06A
:1007A000292F482F60E18FE09AD0809107018BD2EA
:1007B000F8946091070180E090E0D6D27894D0CD93
:1007C000812F90910A01911180E080930A016C2F92
:1007D000B7D2E12C00E0292F482F65E080E17FD0DF
:1007E000F89460910A0181E090E0BED27894B8CD8F
:1007F000812F90910601911180E0809306016C2F6A
:100800009FD2E12C00E0292F482F63E185E067D0DB
:10081000F8946091060182E090E0A6D27894A0CD91
:100820001092EE009DCD8AB383688ABBDF9A08954B
:10083000809360000895D9984AE14A95F1F700C085
:1008400020E030E090E0AC01022E02C055954795C3
:100850000A94E2F740FF02C0D99A01C0D9984AE150
:100860004A95F1F700C0D89A40E14A95F1F7D89837
:100870002F5F3F4F2830310531F7D9988AE18A95AB
:10088000F1F700C00895CF93DF93D82FC62FDF98DC
:1008900080916600D0DFDF9A85E38A95F1F700004A
:1008A000DF988D2FC8DF8C2FC6DFDF9A85E38A950E
:1008B000F1F70000DF9880916700BDDFDF9A85E3E4
:1008C0008A95F1F70000DF9880916000B4DFDF9A2D
:1008D00085E38A95F1F70000DF91CF9108952F927B
:1008E0003F924F925F926F927F928F929F92AF92C0
:1008F000BF92CF92DF92EF92FF920F931F93CF930D
:10090000DF93CDB7DEB764970FB6F894DEBF0FBEA6
:10091000CDBFE82FF0E0E859FF4F80818983E62FB3
:10092000F0E0E859FF4F80818A83E42FF0E0E85936
:10093000FF4F80818B83E22FF0E0E859FF4F8081E9
:100940008C83E02FF0E0E859FF4F60816D83809148
:10095000650099DF85E0E3EFF0E0DE011696019097
:100960000D928A95E1F7212CCE0101969C878B8709
:10097000FE013696FE87ED873E01F5E06F0E711C95
:100980004FC0F60191916F01F40181914F019817C9
:1009900079F1F2E02F16C9F0F21530F0222059F06B
:1009A00021E0221669F01FC083E0281699F094E038
:1009B0002916A9F018C0F80180818B7F808313C0AD
:1009C000F8018081867F80830EC0F80180818D7F51
:1009D000808309C0F80180818F7A808304C0F80188
:1009E00080818F7D8083F8016081F50180814BDFFC
:1009F0000F5F1F4FFFEFAF1ABF0AC614D70409F6E7
:100A0000EE2049F02FEF80E792E0215080409040A7
:100A1000E1F700C000002394E5E02E1609F486C03B
:100A2000FB85F98B2C852B8B83EF90E08F87988B40
:100A3000FD85FC8B2E852A8B81E690E0F82E392EE1
:100A400023015C018E010A5F1F4F0F2EF3EF8F2EE3
:100A5000F0E09F2EF02DFE0131966F0192CFF6014E
:100A600081916F01F40191914F01891709F445C0FB
:100A7000F2E07F1619F1F71530F0772059F021E0F8
:100A8000721679F035C093E07916F9F0E4E07E163D
:100A900049F12EC082FF2CC0F801808184608083E0
:100AA00027C080FF04C0F80190819160908383FF8C
:100AB0001FC0F8018081886080831AC081FF18C040
:100AC000F80180818260808313C084FF04C0F80134
:100AD00090819061908386FF0BC0F80180818064D3
:100AE000808306C085FF04C0F80180818062808316
:100AF000F8016081F5018081C6DE0F5F1F4FFFEFB7
:100B0000AF1ABF0AC414D50409F0A9CFEE2049F0EA
:100B10002FEF80E792E0215080409040E1F700C045
:100B200000007394E5E07E1207C00FC0832D3F2CB8
:100B3000F82E712C6B882C88A32CBF2C022D1A89BF
:100B40008F849888C988D62C8ACF85E0FE0131969B
:100B5000A3EFB0E001900D928A95E1F764960FB68D
:100B6000F894DEBF0FBECDBFDF91CF911F910F91E3
:100B7000FF90EF90DF90CF90BF90AF909F908F90BD
:100B80007F906F905F904F903F902F900895C29A02
:100B900000000000000000000000C2980895C29A02
:100BA0000000000000000000000000000000000045
:100BB000C2980895BA9A89E00895AF92BF92CF92F1
:100BC000DF92FF920F931F93CF93DF93F8940F2E32
:100BD000F9EFCF2EF0E0DF2EF02D0F2EF5E0AF2E47
:100BE000F1E0BF2EF02D3CC0E8018881882314F489
:100BF000D6DF01C0CCDF888186FF02C0D0DF01C014
:100C0000C6DF888185FF02C0CADF01C0C0DF8881DE
:100C100084FF02C0C4DF01C0BADF888183FF02C045
:100C2000BEDF01C0B4DF888182FF02C0B8DF01C02F
:100C3000AEDF888181FF02C0B2DF01C0A8DF0F5F95
:100C40001F4F888180FF02C0AADF01C0A0DFFA9495
:100C5000F110CACF83E0C80ED11CCA14DB0431F0F6
:100C600086010F2EF3E0FF2EF02DBECF7894DF919A
:100C7000CF911F910F91FF90DF90CF90BF90AF90D9
:100C80000895082E000C990BFC01EE0FFF1FE80FD2
:100C9000F91FDF01A750BF4F262F30E0260F311D6F
:100CA000260F311D220F331F220F331FE20FF31FB8
:100CB000E158FF4F8081918111969C938E938281A0
:100CC00012968C930895CF93DF93D82F8091F800DC
:100CD0008D17D0F4C0E06091F8008C2FD2DFCF5F89
:100CE000C430C9F7C0E06D2F8C2FCBDF66DF2FEF4C
:100CF00080E792E0215080409040E1F700C0000082
:100D0000CF5FC43081F717C0C3E06091F8008C2F2B
:100D1000B8DFC150D0F7C3E06D2F8C2FB2DF4DDFAD
:100D20002FEF80E792E0215080409040E1F700C033
:100D30000000C15088F7D093F800DF91CF9108955B
:100D4000991B79E004C0991F961708F0961B881F1D
:100D50007A95C9F780950895E199FECF1FBA8EBBA9
:100D6000E09A99278DB30895262FE199FECF1CBAFA
:100D70001FBA8EBB2DBB0FB6F894E29AE19A0FBE54
:080D800001960895F894FFCFDD
:100D88008FC0C2C4C6C844017D186E3E1B37771C8D
:100D98007F3F5B4254527A7361670263000F6000C1
:100DA800000000000000000000000000001E00001D
:100DB8001E00001E00001E1E00001E00001E000077
:100DC8001E00000014140014140014140014141E3F
:100DD800000F1E000F1E000F1E000F1E03001E0333
:100DE800001E03001E030008001E08001E08001E47
:100DF80008001E1414001414001414001414000025
:0C0E080014141E000F1E03001E0000004A
:00000001FF
